{
  "contractName": "IntswapV1Launchpool",
  "abi": [
    {
      "inputs": [
        {
          "internalType": "contract IIntswapV1Factory",
          "name": "_factory",
          "type": "address"
        },
        {
          "internalType": "contract IIntswapV1StakingCenter",
          "name": "_stakingCenter",
          "type": "address"
        }
      ],
      "stateMutability": "nonpayable",
      "type": "constructor"
    },
    {
      "anonymous": false,
      "inputs": [
        {
          "indexed": false,
          "internalType": "address",
          "name": "lpToken",
          "type": "address"
        },
        {
          "indexed": false,
          "internalType": "contract IERC721",
          "name": "rewardToken",
          "type": "address"
        },
        {
          "indexed": false,
          "internalType": "uint256",
          "name": "epochNum",
          "type": "uint256"
        },
        {
          "indexed": false,
          "internalType": "uint256",
          "name": "startTime",
          "type": "uint256"
        },
        {
          "indexed": false,
          "internalType": "uint256",
          "name": "rewardRate",
          "type": "uint256"
        },
        {
          "indexed": false,
          "internalType": "uint256",
          "name": "totalRewards",
          "type": "uint256"
        }
      ],
      "name": "NewRewardEpoch",
      "type": "event"
    },
    {
      "anonymous": false,
      "inputs": [
        {
          "indexed": false,
          "internalType": "address",
          "name": "lpToken",
          "type": "address"
        }
      ],
      "name": "NotActive",
      "type": "event"
    },
    {
      "anonymous": false,
      "inputs": [
        {
          "indexed": false,
          "internalType": "address",
          "name": "account",
          "type": "address"
        },
        {
          "indexed": false,
          "internalType": "address",
          "name": "lpToken",
          "type": "address"
        },
        {
          "indexed": false,
          "internalType": "address",
          "name": "rewardToken",
          "type": "address"
        },
        {
          "indexed": false,
          "internalType": "uint256",
          "name": "rewardAmount",
          "type": "uint256"
        }
      ],
      "name": "RewardPaid",
      "type": "event"
    },
    {
      "anonymous": false,
      "inputs": [
        {
          "indexed": true,
          "internalType": "bytes32",
          "name": "role",
          "type": "bytes32"
        },
        {
          "indexed": true,
          "internalType": "bytes32",
          "name": "previousAdminRole",
          "type": "bytes32"
        },
        {
          "indexed": true,
          "internalType": "bytes32",
          "name": "newAdminRole",
          "type": "bytes32"
        }
      ],
      "name": "RoleAdminChanged",
      "type": "event"
    },
    {
      "anonymous": false,
      "inputs": [
        {
          "indexed": true,
          "internalType": "bytes32",
          "name": "role",
          "type": "bytes32"
        },
        {
          "indexed": true,
          "internalType": "address",
          "name": "account",
          "type": "address"
        },
        {
          "indexed": true,
          "internalType": "address",
          "name": "sender",
          "type": "address"
        }
      ],
      "name": "RoleGranted",
      "type": "event"
    },
    {
      "anonymous": false,
      "inputs": [
        {
          "indexed": true,
          "internalType": "bytes32",
          "name": "role",
          "type": "bytes32"
        },
        {
          "indexed": true,
          "internalType": "address",
          "name": "account",
          "type": "address"
        },
        {
          "indexed": true,
          "internalType": "address",
          "name": "sender",
          "type": "address"
        }
      ],
      "name": "RoleRevoked",
      "type": "event"
    },
    {
      "anonymous": false,
      "inputs": [
        {
          "indexed": false,
          "internalType": "address",
          "name": "account",
          "type": "address"
        },
        {
          "indexed": false,
          "internalType": "address",
          "name": "lpToken",
          "type": "address"
        }
      ],
      "name": "UpdatePosition",
      "type": "event"
    },
    {
      "inputs": [],
      "name": "ADMIN_ROLE",
      "outputs": [
        {
          "internalType": "bytes32",
          "name": "",
          "type": "bytes32"
        }
      ],
      "stateMutability": "view",
      "type": "function",
      "constant": true
    },
    {
      "inputs": [],
      "name": "CREATE_NEW_INCENTIVE",
      "outputs": [
        {
          "internalType": "bytes32",
          "name": "",
          "type": "bytes32"
        }
      ],
      "stateMutability": "view",
      "type": "function",
      "constant": true
    },
    {
      "inputs": [],
      "name": "DEFAULT_ADMIN_ROLE",
      "outputs": [
        {
          "internalType": "bytes32",
          "name": "",
          "type": "bytes32"
        }
      ],
      "stateMutability": "view",
      "type": "function",
      "constant": true
    },
    {
      "inputs": [],
      "name": "factory",
      "outputs": [
        {
          "internalType": "contract IIntswapV1Factory",
          "name": "",
          "type": "address"
        }
      ],
      "stateMutability": "view",
      "type": "function",
      "constant": true
    },
    {
      "inputs": [
        {
          "internalType": "bytes32",
          "name": "role",
          "type": "bytes32"
        }
      ],
      "name": "getRoleAdmin",
      "outputs": [
        {
          "internalType": "bytes32",
          "name": "",
          "type": "bytes32"
        }
      ],
      "stateMutability": "view",
      "type": "function",
      "constant": true
    },
    {
      "inputs": [
        {
          "internalType": "bytes32",
          "name": "role",
          "type": "bytes32"
        },
        {
          "internalType": "address",
          "name": "account",
          "type": "address"
        }
      ],
      "name": "grantRole",
      "outputs": [],
      "stateMutability": "nonpayable",
      "type": "function"
    },
    {
      "inputs": [
        {
          "internalType": "bytes32",
          "name": "role",
          "type": "bytes32"
        },
        {
          "internalType": "address",
          "name": "account",
          "type": "address"
        }
      ],
      "name": "hasRole",
      "outputs": [
        {
          "internalType": "bool",
          "name": "",
          "type": "bool"
        }
      ],
      "stateMutability": "view",
      "type": "function",
      "constant": true
    },
    {
      "inputs": [
        {
          "internalType": "address",
          "name": "",
          "type": "address"
        }
      ],
      "name": "incentives",
      "outputs": [
        {
          "internalType": "address",
          "name": "lpToken",
          "type": "address"
        },
        {
          "internalType": "contract IERC721",
          "name": "rewardToken",
          "type": "address"
        },
        {
          "internalType": "uint256",
          "name": "epochNum",
          "type": "uint256"
        },
        {
          "internalType": "uint256",
          "name": "startTime",
          "type": "uint256"
        },
        {
          "internalType": "uint256",
          "name": "totalRewardAmount",
          "type": "uint256"
        },
        {
          "internalType": "uint256",
          "name": "remainAmount",
          "type": "uint256"
        },
        {
          "internalType": "uint256",
          "name": "lastRewardTime",
          "type": "uint256"
        },
        {
          "internalType": "uint256",
          "name": "rewardRate",
          "type": "uint256"
        },
        {
          "internalType": "uint256",
          "name": "rewardPerTokenStored",
          "type": "uint256"
        },
        {
          "internalType": "bool",
          "name": "isActive",
          "type": "bool"
        }
      ],
      "stateMutability": "view",
      "type": "function",
      "constant": true
    },
    {
      "inputs": [],
      "name": "name",
      "outputs": [
        {
          "internalType": "string",
          "name": "",
          "type": "string"
        }
      ],
      "stateMutability": "view",
      "type": "function",
      "constant": true
    },
    {
      "inputs": [
        {
          "internalType": "bytes32",
          "name": "role",
          "type": "bytes32"
        },
        {
          "internalType": "address",
          "name": "account",
          "type": "address"
        }
      ],
      "name": "renounceRole",
      "outputs": [],
      "stateMutability": "nonpayable",
      "type": "function"
    },
    {
      "inputs": [
        {
          "internalType": "bytes32",
          "name": "role",
          "type": "bytes32"
        },
        {
          "internalType": "address",
          "name": "account",
          "type": "address"
        }
      ],
      "name": "revokeRole",
      "outputs": [],
      "stateMutability": "nonpayable",
      "type": "function"
    },
    {
      "inputs": [],
      "name": "stakingCenter",
      "outputs": [
        {
          "internalType": "contract IIntswapV1StakingCenter",
          "name": "",
          "type": "address"
        }
      ],
      "stateMutability": "view",
      "type": "function",
      "constant": true
    },
    {
      "inputs": [
        {
          "internalType": "bytes4",
          "name": "interfaceId",
          "type": "bytes4"
        }
      ],
      "name": "supportsInterface",
      "outputs": [
        {
          "internalType": "bool",
          "name": "",
          "type": "bool"
        }
      ],
      "stateMutability": "view",
      "type": "function",
      "constant": true
    },
    {
      "inputs": [
        {
          "internalType": "address[]",
          "name": "_lpTokens",
          "type": "address[]"
        },
        {
          "internalType": "contract IERC721[]",
          "name": "_rewardTokens",
          "type": "address[]"
        },
        {
          "internalType": "uint256[]",
          "name": "_startTimes",
          "type": "uint256[]"
        },
        {
          "internalType": "uint256[]",
          "name": "_rewardRate",
          "type": "uint256[]"
        },
        {
          "internalType": "uint256[]",
          "name": "_rewardAmounts",
          "type": "uint256[]"
        },
        {
          "internalType": "uint256[][]",
          "name": "_tokenIds",
          "type": "uint256[][]"
        }
      ],
      "name": "createIncentive",
      "outputs": [],
      "stateMutability": "nonpayable",
      "type": "function"
    },
    {
      "inputs": [
        {
          "internalType": "address",
          "name": "_lpToken",
          "type": "address"
        },
        {
          "internalType": "uint256",
          "name": "_startTime",
          "type": "uint256"
        },
        {
          "internalType": "uint256",
          "name": "_rewardRate",
          "type": "uint256"
        },
        {
          "internalType": "uint256",
          "name": "_rewardAmount",
          "type": "uint256"
        },
        {
          "internalType": "uint256[]",
          "name": "_tokenIds",
          "type": "uint256[]"
        }
      ],
      "name": "updateIncentive",
      "outputs": [],
      "stateMutability": "nonpayable",
      "type": "function"
    },
    {
      "inputs": [
        {
          "internalType": "address",
          "name": "_lpToken",
          "type": "address"
        },
        {
          "internalType": "address",
          "name": "_account",
          "type": "address"
        }
      ],
      "name": "updatePosition",
      "outputs": [],
      "stateMutability": "nonpayable",
      "type": "function"
    },
    {
      "inputs": [
        {
          "internalType": "address",
          "name": "_lpToken",
          "type": "address"
        },
        {
          "internalType": "address",
          "name": "_account",
          "type": "address"
        }
      ],
      "name": "getReward",
      "outputs": [
        {
          "internalType": "address",
          "name": "rewardTokenAddr",
          "type": "address"
        },
        {
          "internalType": "uint256",
          "name": "rewardAmount",
          "type": "uint256"
        }
      ],
      "stateMutability": "nonpayable",
      "type": "function"
    },
    {
      "inputs": [
        {
          "internalType": "address",
          "name": "_lpToken",
          "type": "address"
        },
        {
          "internalType": "uint256[]",
          "name": "_tokenIds",
          "type": "uint256[]"
        }
      ],
      "name": "getRewardByOwner",
      "outputs": [
        {
          "internalType": "address",
          "name": "rewardTokenAddr",
          "type": "address"
        },
        {
          "internalType": "uint256",
          "name": "rewardAmount",
          "type": "uint256"
        }
      ],
      "stateMutability": "nonpayable",
      "type": "function"
    },
    {
      "inputs": [
        {
          "internalType": "address",
          "name": "_lpToken",
          "type": "address"
        },
        {
          "internalType": "address",
          "name": "_account",
          "type": "address"
        }
      ],
      "name": "earned",
      "outputs": [
        {
          "internalType": "contract IERC721",
          "name": "",
          "type": "address"
        },
        {
          "internalType": "uint256",
          "name": "",
          "type": "uint256"
        }
      ],
      "stateMutability": "view",
      "type": "function",
      "constant": true
    },
    {
      "inputs": [
        {
          "internalType": "address",
          "name": "_lpToken",
          "type": "address"
        }
      ],
      "name": "estimatedOneYearRewards",
      "outputs": [
        {
          "internalType": "contract IERC721",
          "name": "",
          "type": "address"
        },
        {
          "internalType": "uint256",
          "name": "",
          "type": "uint256"
        }
      ],
      "stateMutability": "view",
      "type": "function",
      "constant": true
    }
  ],
  "bytecode": "0x60c0604052601360808190527f496e7473776170204c61756e636820506f6f6c0000000000000000000000000060a090815262000040916002919062000208565b503480156200004e57600080fd5b5060405162002406380380620024068339810160408190526200007191620002c7565b60018055600380546001600160a01b038085166001600160a01b0319928316179092556004805492841692909116919091179055620000cf600080516020620023c6833981519152600080516020620023e68339815191526200010d565b620000ea600080516020620023e68339815191523362000158565b62000105600080516020620023c68339815191523362000158565b505062000343565b600082815260208190526040808220600101805490849055905190918391839186917fbd79b86ffe0ab8e8776151514217cd7cacd52c909f66475c3af44e129f0b00ff9190a4505050565b62000164828262000168565b5050565b6000828152602081815260408083206001600160a01b038516845290915290205460ff1662000164576000828152602081815260408083206001600160a01b03851684529091529020805460ff19166001179055620001c43390565b6001600160a01b0316816001600160a01b0316837f2f8788117e7eff1d82e926ec794901d17c78024a50270940304540a733656f0d60405160405180910390a45050565b828054620002169062000306565b90600052602060002090601f0160209004810192826200023a576000855562000285565b82601f106200025557805160ff191683800117855562000285565b8280016001018555821562000285579182015b828111156200028557825182559160200191906001019062000268565b506200029392915062000297565b5090565b5b8082111562000293576000815560010162000298565b6001600160a01b0381168114620002c457600080fd5b50565b60008060408385031215620002db57600080fd5b8251620002e881620002ae565b6020840151909250620002fb81620002ae565b809150509250929050565b600181811c908216806200031b57607f821691505b602082108114156200033d57634e487b7160e01b600052602260045260246000fd5b50919050565b61207380620003536000396000f3fe608060405234801561001057600080fd5b506004361061012c5760003560e01c80638390dbd2116100ad578063c7aadce311610071578063c7aadce31461038d578063d547741f146103a0578063e8515ee9146103b3578063e8dbe954146103c6578063ebe02e1d146103d957600080fd5b80638390dbd21461032157806391d14854146103345780639f3352df14610347578063a217fddf1461035a578063c45a01551461036257600080fd5b806336568abe116100f457806336568abe146101e65780636b091695146101f957806375b238fc1461020c578063774e900b1461023357806381069d98146102fa57600080fd5b806301ffc9a71461013157806306fdde0314610159578063211dc32d1461016e578063248a9ca3146101a05780632f2ff15d146101d1575b600080fd5b61014461013f3660046118e4565b6103ec565b60405190151581526020015b60405180910390f35b610161610423565b604051610150919061193e565b61018161017c366004611986565b6104b1565b604080516001600160a01b039093168352602083019190915201610150565b6101c36101ae3660046119bf565b60009081526020819052604090206001015490565b604051908152602001610150565b6101e46101df3660046119d8565b61061e565b005b6101e46101f43660046119d8565b610648565b610181610207366004611986565b6106cb565b6101c37fa49807205ce4d355092ef5a8a18f56e8913cf4a201fbe287825b095693c2177581565b6102a36102413660046119fd565b60056020819052600091825260409091208054600182015460028301546003840154600485015495850154600686015460078701546008880154600b909801546001600160a01b03978816999690971697949693959492939192909160ff168a565b604080516001600160a01b039b8c1681529a90991660208b0152978901969096526060880194909452608087019290925260a086015260c085015260e0840152610100830152151561012082015261014001610150565b6101c37ffbc3827e8c70d56928dcec92463c7f7c93623f667908dd91d96df1d9b75b2bce81565b6101e461032f366004611c38565b61080d565b6101446103423660046119d8565b61096e565b6101e4610355366004611d2d565b610997565b6101c3600081565b600354610375906001600160a01b031681565b6040516001600160a01b039091168152602001610150565b61018161039b3660046119fd565b610c2b565b6101e46103ae3660046119d8565b610c83565b6101816103c1366004611d9a565b610ca8565b600454610375906001600160a01b031681565b6101e46103e7366004611986565b610f2c565b60006001600160e01b03198216637965db0b60e01b148061041d57506301ffc9a760e01b6001600160e01b03198316145b92915050565b6002805461043090611dea565b80601f016020809104026020016040519081016040528092919081815260200182805461045c90611dea565b80156104a95780601f1061047e576101008083540402835291602001916104a9565b820191906000526020600020905b81548152906001019060200180831161048c57829003601f168201915b505050505081565b6001600160a01b0380831660009081526005602090815260408083209385168352600984018252808320600285015484529091528120549091829182906104f7876110d1565b6105019190611e3b565b60048054604051633de222bb60e21b81526001600160a01b038a811693820193909352888316602482015292935060009291169063f7888aec90604401602060405180830381865afa15801561055b573d6000803e3d6000fd5b505050506040513d601f19601f8201168201806040525081019061057f9190611e52565b6001600160a01b0387166000908152600a85016020908152604080832060028801548452909152812054919250816105b784866111c6565b6105c19190611e6b565b905080670de0b6b3a764000086600501546105dc9190611e83565b106105e757806105ff565b670de0b6b3a764000085600501546105ff9190611e83565b6001909501546001600160a01b03169650939450505050509250929050565b600082815260208190526040902060010154610639816111e2565b61064383836111ef565b505050565b6001600160a01b03811633146106bd5760405162461bcd60e51b815260206004820152602f60248201527f416363657373436f6e74726f6c3a2063616e206f6e6c792072656e6f756e636560448201526e103937b632b9903337b91039b2b63360891b60648201526084015b60405180910390fd5b6106c78282611273565b5050565b600080600260015414156106f15760405162461bcd60e51b81526004016106b490611ea2565b60026001556004546001600160a01b031633146107205760405162461bcd60e51b81526004016106b490611ed9565b6001600160a01b0384166000908152600560205260409020600b81015460ff16156107c2576001600160a01b038085166000908152600a83016020908152604080832060028601548452909152902054600183015460058401549216945092508390839061079790670de0b6b3a764000090611e83565b106107a257826107ba565b670de0b6b3a764000082600501546107ba9190611e83565b9250506107ff565b6040516001600160a01b03861681527f4022bc554c72cf2c9ccd5d09c2ade2b82a349ca5f4d7a60324bb8fda79446fb39060200160405180910390a15b506001805590939092509050565b600260015414156108305760405162461bcd60e51b81526004016106b490611ea2565b60026001557ffbc3827e8c70d56928dcec92463c7f7c93623f667908dd91d96df1d9b75b2bce61085f816111e2565b60005b8751811015610960576108c487828151811061088057610880611f20565b6020026020010151333086858151811061089c5761089c611f20565b60200260200101518786815181106108b6576108b6611f20565b6020026020010151516112d8565b61094e8882815181106108d9576108d9611f20565b60200260200101518883815181106108f3576108f3611f20565b602002602001015188848151811061090d5761090d611f20565b602002602001015188858151811061092757610927611f20565b602002602001015188868151811061094157610941611f20565b602002602001015161138b565b8061095881611f36565b915050610862565b505060018055505050505050565b6000918252602082815260408084206001600160a01b0393909316845291905290205460ff1690565b600260015414156109ba5760405162461bcd60e51b81526004016106b490611ea2565b60026001557ffbc3827e8c70d56928dcec92463c7f7c93623f667908dd91d96df1d9b75b2bce6109e9816111e2565b6001600160a01b0386166000908152600560205260409020600b81015460ff16610a555760405162461bcd60e51b815260206004820181905260248201527f496e747377617056314c61756e6368706f6f6c3a204e6f74204372656174656460448201526064016106b4565b428611610aa45760405162461bcd60e51b815260206004820152601c60248201527f496e747377617056314c61756e6368706f6f6c3a20457870697265640000000060448201526064016106b4565b60008411610af45760405162461bcd60e51b815260206004820152601d60248201527f496e747377617056314c61756e6368706f6f6c3a204e6f74205a65726f00000060448201526064016106b4565b600581015415610b505760405162461bcd60e51b815260206004820152602160248201527f496e747377617056314c61756e6368706f6f6c3a204e6f742046696e697368656044820152601960fa1b60648201526084016106b4565b60018101548351610b70916001600160a01b0316903390309087906112d8565b600381018690556006810186905560078101859055600481018490556005810184905560006008820181905560028201805460019290610bb1908490611e6b565b909155505060018101546002820154604080516001600160a01b03808c1682529093166020840152820152606081018790526080810186905260a081018590527f532a1409ba0cd7e1b8a300cc1329aca28e56d88a90a74d53ae4a9c416335fc389060c00160405180910390a15050600180555050505050565b6001600160a01b03808216600090815260056020526040812060018101546003820154929384934292909116908211610c65576000610c78565b6007830154610c78906301e13380611e83565b935093505050915091565b600082815260208190526040902060010154610c9e816111e2565b6106438383611273565b60008060026001541415610cce5760405162461bcd60e51b81526004016106b490611ea2565b60026001556001600160a01b0384166000908152600560205260409020600b8101548591339160ff1615610d7057610d05836110d1565b6008820155610d1381611693565b6006820155610d2283836104b1565b6001600160a01b0384166000818152600a8501602090815260408083206002880180548552908352818420959095556008870154938352600987018252808320945483529390529190912055505b6001600160a01b0387166000908152600560205260409020600b81015460ff1615610ede57336000908152600a82016020908152604080832060028501548452909152902054600182015460058301546001600160a01b03909116975090955086908690610de790670de0b6b3a764000090611e83565b10610df25785610e0a565b670de0b6b3a76400008260050154610e0a9190611e83565b95506000610e20670de0b6b3a764000088611f67565b90506000610e36670de0b6b3a764000089611f7b565b90508115610ed657336000818152600a860160209081526040808320600289015484529091529020829055610e7090849030908d866112d8565b818460050154610e809190611e3b565b6005850155604080513381526001600160a01b038d811660208301528516818301526060810184905290517fce405e67b4d6e56e438257e15f160ae28b450e6e7659bbc4c1f4e09a1ac846cb9181900360800190a15b505050610f1b565b6040516001600160a01b03891681527f4022bc554c72cf2c9ccd5d09c2ade2b82a349ca5f4d7a60324bb8fda79446fb39060200160405180910390a15b505060018055509194909350915050565b60026001541415610f4f5760405162461bcd60e51b81526004016106b490611ea2565b60026001556004546001600160a01b03163314610f7e5760405162461bcd60e51b81526004016106b490611ed9565b6001600160a01b0382166000908152600560205260409020600b8101548391839160ff161561101b57610fb0836110d1565b6008820155610fbe81611693565b6006820155610fcd83836104b1565b6001600160a01b0384166000818152600a8501602090815260408083206002880180548552908352818420959095556008870154938352600987018252808320945483529390529190912055505b6001600160a01b0385166000908152600560205260409020600b81015460ff161561108857604080516001600160a01b038088168252881660208201527f49815815e71204ac372075395028873574da43beb51b0d6cc880f4a7f902c514910160405180910390a16110c5565b6040516001600160a01b03871681527f4022bc554c72cf2c9ccd5d09c2ade2b82a349ca5f4d7a60324bb8fda79446fb39060200160405180910390a15b50506001805550505050565b60048054604051638715937f60e01b81526001600160a01b038481169382019390935260009283921690638715937f90602401602060405180830381865afa158015611121573d6000803e3d6000fd5b505050506040513d601f19601f820116820180604052508101906111459190611e52565b6001600160a01b03841660009081526005602052604090209091508161117157806008015492506111bf565b6000816006015461118183611693565b61118b9190611e3b565b905060006111a88360070154836111a29190611e83565b856116b4565b90508083600801546111ba9190611e6b565b945050505b5050919050565b60006111db8383670de0b6b3a76400006116c5565b9392505050565b6111ec81336116e4565b50565b6111f9828261096e565b6106c7576000828152602081815260408083206001600160a01b03851684529091529020805460ff1916600117905561122f3390565b6001600160a01b0316816001600160a01b0316837f2f8788117e7eff1d82e926ec794901d17c78024a50270940304540a733656f0d60405160405180910390a45050565b61127d828261096e565b156106c7576000828152602081815260408083206001600160a01b0385168085529252808320805460ff1916905551339285917ff6391f5c32d9c69d2a47ea670b442974b53935d1edc7fd64eb21e047a839171b9190a45050565b60005b8181101561138357856001600160a01b03166323b872dd868686858151811061130657611306611f20565b60209081029190910101516040516001600160e01b031960e086901b1681526001600160a01b0393841660048201529290911660248301526044820152606401600060405180830381600087803b15801561136057600080fd5b505af1158015611374573d6000803e3d6000fd5b505050508060010190506112db565b505050505050565b4283116113da5760405162461bcd60e51b815260206004820152601c60248201527f496e747377617056314c61756e6368706f6f6c3a20457870697265640000000060448201526064016106b4565b6000821161143b5760405162461bcd60e51b815260206004820152602860248201527f496e747377617056314c61756e6368706f6f6c3a2052657761726452617465206044820152676e6f74207a65726f60c01b60648201526084016106b4565b6000811161148b5760405162461bcd60e51b815260206004820152601d60248201527f496e747377617056314c61756e6368706f6f6c3a204e6f74205a65726f00000060448201526064016106b4565b60035460405163519af55f60e11b81526001600160a01b0387811660048301529091169063a335eabe90602401602060405180830381865afa1580156114d5573d6000803e3d6000fd5b505050506040513d601f19601f820116820180604052508101906114f99190611f8f565b6115585760405162461bcd60e51b815260206004820152602a60248201527f496e747377617056314c61756e6368706f6f6c3a204e6f74204f66666963696160448201526936102628102a37b5b2b760b11b60648201526084016106b4565b6001600160a01b0385166000908152600560205260409020600b81015460ff16156115d15760405162461bcd60e51b8152602060048201526024808201527f496e747377617056314c61756e6368706f6f6c3a20416c726561647920437265604482015263185d195960e21b60648201526084016106b4565b80546001600160a01b038781166001600160a01b03199283168117845560018085018054938a169390941683179093556003840187905560068401879055600784018690556004840185905560058401859055600b8401805460ff1916909317909255604080519283526020830191909152600090820152606081018590526080810184905260a081018390527f532a1409ba0cd7e1b8a300cc1329aca28e56d88a90a74d53ae4a9c416335fc389060c00160405180910390a1505050505050565b600381015460009042908082106116aa57816116ac565b805b949350505050565b60006111db83670de0b6b3a7640000845b8282028115158415858304851417166116dd57600080fd5b0492915050565b6116ee828261096e565b6106c757611706816001600160a01b03166014611748565b611711836020611748565b604051602001611722929190611fb1565b60408051601f198184030181529082905262461bcd60e51b82526106b49160040161193e565b60606000611757836002611e83565b611762906002611e6b565b67ffffffffffffffff81111561177a5761177a611a1a565b6040519080825280601f01601f1916602001820160405280156117a4576020820181803683370190505b509050600360fc1b816000815181106117bf576117bf611f20565b60200101906001600160f81b031916908160001a905350600f60fb1b816001815181106117ee576117ee611f20565b60200101906001600160f81b031916908160001a9053506000611812846002611e83565b61181d906001611e6b565b90505b6001811115611895576f181899199a1a9b1b9c1cb0b131b232b360811b85600f166010811061185157611851611f20565b1a60f81b82828151811061186757611867611f20565b60200101906001600160f81b031916908160001a90535060049490941c9361188e81612026565b9050611820565b5083156111db5760405162461bcd60e51b815260206004820181905260248201527f537472696e67733a20686578206c656e67746820696e73756666696369656e7460448201526064016106b4565b6000602082840312156118f657600080fd5b81356001600160e01b0319811681146111db57600080fd5b60005b83811015611929578181015183820152602001611911565b83811115611938576000848401525b50505050565b602081526000825180602084015261195d81604085016020870161190e565b601f01601f19169190910160400192915050565b6001600160a01b03811681146111ec57600080fd5b6000806040838503121561199957600080fd5b82356119a481611971565b915060208301356119b481611971565b809150509250929050565b6000602082840312156119d157600080fd5b5035919050565b600080604083850312156119eb57600080fd5b8235915060208301356119b481611971565b600060208284031215611a0f57600080fd5b81356111db81611971565b634e487b7160e01b600052604160045260246000fd5b604051601f8201601f1916810167ffffffffffffffff81118282101715611a5957611a59611a1a565b604052919050565b600067ffffffffffffffff821115611a7b57611a7b611a1a565b5060051b60200190565b600082601f830112611a9657600080fd5b81356020611aab611aa683611a61565b611a30565b82815260059290921b84018101918181019086841115611aca57600080fd5b8286015b84811015611aee578035611ae181611971565b8352918301918301611ace565b509695505050505050565b600082601f830112611b0a57600080fd5b81356020611b1a611aa683611a61565b82815260059290921b84018101918181019086841115611b3957600080fd5b8286015b84811015611aee578035611b5081611971565b8352918301918301611b3d565b600082601f830112611b6e57600080fd5b81356020611b7e611aa683611a61565b82815260059290921b84018101918181019086841115611b9d57600080fd5b8286015b84811015611aee5780358352918301918301611ba1565b600082601f830112611bc957600080fd5b81356020611bd9611aa683611a61565b82815260059290921b84018101918181019086841115611bf857600080fd5b8286015b84811015611aee57803567ffffffffffffffff811115611c1c5760008081fd5b611c2a8986838b0101611b5d565b845250918301918301611bfc565b60008060008060008060c08789031215611c5157600080fd5b863567ffffffffffffffff80821115611c6957600080fd5b611c758a838b01611a85565b97506020890135915080821115611c8b57600080fd5b611c978a838b01611af9565b96506040890135915080821115611cad57600080fd5b611cb98a838b01611b5d565b95506060890135915080821115611ccf57600080fd5b611cdb8a838b01611b5d565b94506080890135915080821115611cf157600080fd5b611cfd8a838b01611b5d565b935060a0890135915080821115611d1357600080fd5b50611d2089828a01611bb8565b9150509295509295509295565b600080600080600060a08688031215611d4557600080fd5b8535611d5081611971565b9450602086013593506040860135925060608601359150608086013567ffffffffffffffff811115611d8157600080fd5b611d8d88828901611b5d565b9150509295509295909350565b60008060408385031215611dad57600080fd5b8235611db881611971565b9150602083013567ffffffffffffffff811115611dd457600080fd5b611de085828601611b5d565b9150509250929050565b600181811c90821680611dfe57607f821691505b60208210811415611e1f57634e487b7160e01b600052602260045260246000fd5b50919050565b634e487b7160e01b600052601160045260246000fd5b600082821015611e4d57611e4d611e25565b500390565b600060208284031215611e6457600080fd5b5051919050565b60008219821115611e7e57611e7e611e25565b500190565b6000816000190483118215151615611e9d57611e9d611e25565b500290565b6020808252601f908201527f5265656e7472616e637947756172643a207265656e7472616e742063616c6c00604082015260600190565b60208082526027908201527f496e747377617056314c61756e6368706f6f6c3a204e6f74205374616b696e676040820152661021b2b73a32b960c91b606082015260800190565b634e487b7160e01b600052603260045260246000fd5b6000600019821415611f4a57611f4a611e25565b5060010190565b634e487b7160e01b600052601260045260246000fd5b600082611f7657611f76611f51565b500490565b600082611f8a57611f8a611f51565b500690565b600060208284031215611fa157600080fd5b815180151581146111db57600080fd5b7f416363657373436f6e74726f6c3a206163636f756e7420000000000000000000815260008351611fe981601785016020880161190e565b7001034b99036b4b9b9b4b733903937b6329607d1b601791840191820152835161201a81602884016020880161190e565b01602801949350505050565b60008161203557612035611e25565b50600019019056fea2646970667358221220c8d998d802a0e6b0d1cc1d470fd228db34a85ab8b211b40d9e4523269a255aec64736f6c634300080a0033fbc3827e8c70d56928dcec92463c7f7c93623f667908dd91d96df1d9b75b2bcea49807205ce4d355092ef5a8a18f56e8913cf4a201fbe287825b095693c21775",
  "immutableReferences": {},
  "source": "// SPDX-License-Identifier: MIT\npragma solidity 0.8.10;\n\nimport \"@openzeppelin/contracts/access/AccessControl.sol\";\nimport \"@openzeppelin/contracts/security/ReentrancyGuard.sol\";\nimport \"solmate/src/utils/FixedPointMathLib.sol\";\nimport \"@openzeppelin/contracts/token/ERC20/IERC20.sol\";\nimport \"@openzeppelin/contracts/token/ERC721/IERC721.sol\";\nimport \"../interfaces/IIntswapV1Factory.sol\";\nimport \"../interfaces/IIntswapV1IncentiveStrategy.sol\";\nimport \"../interfaces/IIntswapV1StakingCenter.sol\";\n\n\ncontract IntswapV1Launchpool is AccessControl, ReentrancyGuard {\n    bytes32 public constant ADMIN_ROLE = keccak256(\"ADMIN_ROLE\");\n    bytes32 public constant CREATE_NEW_INCENTIVE = keccak256(\"CREATE_NEW_INCENTIVE\");\n    string public name = \"Intswap Launch Pool\";\n\n    struct Incentive {\n        address lpToken;\n        IERC721 rewardToken;\n        uint256 epochNum;\n        uint256 startTime;\n        uint256 totalRewardAmount;\n        uint256 remainAmount;\n        uint256 lastRewardTime;\n        uint256 rewardRate;\n        uint256 rewardPerTokenStored;\n\n        mapping(address => mapping(uint256 => uint256)) userRewardPerTokenPaid;\n        mapping(address => mapping(uint256 => uint256)) userUnClaimedRewards;\n        bool isActive;\n    }\n\n    IIntswapV1Factory public factory;\n    IIntswapV1StakingCenter public stakingCenter;\n    mapping(address => Incentive) public incentives;\n\n    event NewRewardEpoch(\n        address lpToken,\n        IERC721 rewardToken,\n        uint256 epochNum,\n        uint256 startTime,\n        uint256 rewardRate,\n        uint256 totalRewards\n    );\n\n    event NotActive(address lpToken);\n    event UpdatePosition(address account, address lpToken);\n    event RewardPaid(address account, address lpToken, address rewardToken, uint256 rewardAmount);\n\n    modifier onlyStakingCenter() {\n        require(msg.sender == address(stakingCenter), \"IntswapV1Launchpool: Not Staking Center\");\n        _;\n    }\n\n    modifier updateRewards(address _lpToken, address _account) {\n        Incentive storage targetIncentive = incentives[_lpToken];\n        if (targetIncentive.isActive) {\n            targetIncentive.rewardPerTokenStored = _rewardPerToken(_lpToken);\n            targetIncentive.lastRewardTime = _lastTimeRewardApplicable(targetIncentive);\n            (, targetIncentive.userUnClaimedRewards[_account][targetIncentive.epochNum]) = earned(_lpToken, _account);\n            targetIncentive.userRewardPerTokenPaid[_account][targetIncentive.epochNum] = targetIncentive.rewardPerTokenStored;\n        }\n        _;\n    }\n\n    constructor(IIntswapV1Factory _factory, IIntswapV1StakingCenter _stakingCenter) {\n        factory = _factory;\n        stakingCenter = _stakingCenter;\n        _setRoleAdmin(CREATE_NEW_INCENTIVE, ADMIN_ROLE);\n        _setupRole(ADMIN_ROLE, _msgSender());\n        _setupRole(CREATE_NEW_INCENTIVE, _msgSender());\n    }\n\n    function createIncentive(\n        address[] memory _lpTokens,\n        IERC721[] memory _rewardTokens,\n        uint256[] memory _startTimes,\n        uint256[] memory _rewardRate,\n        uint256[] memory _rewardAmounts,\n        uint256[][] memory _tokenIds\n    ) \n        external \n        nonReentrant \n        onlyRole(CREATE_NEW_INCENTIVE) \n    {\n        for (uint256 i; i < _lpTokens.length; i++) {\n            _sendSpecificNFTsToRecipient(_rewardTokens[i], msg.sender, address(this), _tokenIds[i], _tokenIds[i].length);\n\n            _createIncentive(\n                _lpTokens[i],\n                _rewardTokens[i],\n                _startTimes[i],\n                _rewardRate[i],\n                _rewardAmounts[i]\n            );\n        }\n    }\n\n    function updateIncentive(\n        address _lpToken,\n        uint256 _startTime,\n        uint256 _rewardRate,\n        uint256 _rewardAmount,\n        uint256[] memory _tokenIds\n    ) \n        external \n        nonReentrant \n        onlyRole(CREATE_NEW_INCENTIVE)  \n    {\n        Incentive storage targetIncentive = incentives[_lpToken];\n\n        require(targetIncentive.isActive, \"IntswapV1Launchpool: Not Created\");\n        require(_startTime > block.timestamp, \"IntswapV1Launchpool: Expired\");\n        require(_rewardAmount > 0, \"IntswapV1Launchpool: Not Zero\");\n        require(targetIncentive.remainAmount == 0, \"IntswapV1Launchpool: Not Finished\");\n\n\n        _sendSpecificNFTsToRecipient(targetIncentive.rewardToken, msg.sender, address(this), _tokenIds, _tokenIds.length);\n        \n        targetIncentive.startTime = _startTime;\n        targetIncentive.lastRewardTime = targetIncentive.startTime;\n        targetIncentive.rewardRate = _rewardRate;\n        targetIncentive.totalRewardAmount = _rewardAmount;\n        targetIncentive.remainAmount = _rewardAmount;\n        targetIncentive.rewardPerTokenStored = 0;\n        targetIncentive.epochNum += 1;\n\n        emit NewRewardEpoch(\n            _lpToken, \n            targetIncentive.rewardToken, \n            targetIncentive.epochNum, \n            _startTime, \n            _rewardRate, \n            _rewardAmount\n        );\n    }\n\n    function updatePosition(address _lpToken, address _account) \n        external\n        nonReentrant\n        onlyStakingCenter \n        updateRewards(_lpToken, _account) \n    {\n        Incentive storage targetIncentive = incentives[_lpToken];\n        if (targetIncentive.isActive) {\n            emit UpdatePosition(_account, address(_lpToken));\n        } else {\n            emit NotActive(address(_lpToken));\n        }\n    }\n\n    function getReward(address _lpToken, address _account) \n        external \n        nonReentrant\n        onlyStakingCenter\n        returns (\n            address rewardTokenAddr,\n            uint256 rewardAmount\n        )\n    {\n        Incentive storage targetIncentive = incentives[_lpToken];\n        if (targetIncentive.isActive) {\n            rewardAmount = targetIncentive.userUnClaimedRewards[_account][targetIncentive.epochNum];\n            IERC721 rewardToken = targetIncentive.rewardToken;\n            rewardTokenAddr = address(rewardToken);\n            rewardAmount = (targetIncentive.remainAmount * FixedPointMathLib.WAD < rewardAmount) ? targetIncentive.remainAmount * FixedPointMathLib.WAD : rewardAmount;\n            // if (rewardAmount > 0) {\n            //     targetIncentive.userUnClaimedRewards[_account][targetIncentive.epochNum] = 0;\n            //     // rewardToken.transfer(_account, rewardAmount);\n            //     emit RewardPaid(_account, address(_lpToken), address(rewardToken), rewardAmount);\n            // }\n        } else {\n            emit NotActive(address(_lpToken));\n        }\n    }\n\n    function getRewardByOwner(address _lpToken, uint256[] memory _tokenIds) \n        external \n        nonReentrant\n        updateRewards(_lpToken, msg.sender) \n        returns (\n            address rewardTokenAddr,\n            uint256 rewardAmount\n        )\n    {\n        Incentive storage targetIncentive = incentives[_lpToken];\n        if (targetIncentive.isActive) {\n            rewardAmount = targetIncentive.userUnClaimedRewards[msg.sender][targetIncentive.epochNum];\n            IERC721 rewardToken = targetIncentive.rewardToken;\n            rewardTokenAddr = address(rewardToken);\n            rewardAmount = (targetIncentive.remainAmount * FixedPointMathLib.WAD < rewardAmount) ? targetIncentive.remainAmount * FixedPointMathLib.WAD : rewardAmount;\n\n            uint256 nftRewardAmount = rewardAmount / FixedPointMathLib.WAD;\n            uint256 unClaimedReward = rewardAmount % FixedPointMathLib.WAD;\n            if (nftRewardAmount > 0) {\n                targetIncentive.userUnClaimedRewards[msg.sender][targetIncentive.epochNum] = unClaimedReward;\n                // rewardToken.transfer(_account, rewardAmount);\n                _sendSpecificNFTsToRecipient(rewardToken, address(this), msg.sender, _tokenIds, nftRewardAmount);\n\n                targetIncentive.remainAmount = targetIncentive.remainAmount - nftRewardAmount;\n                emit RewardPaid(msg.sender, address(_lpToken), address(rewardToken), nftRewardAmount);\n            }\n        } else {\n            emit NotActive(address(_lpToken));\n        }\n    }\n\n    function earned(address _lpToken, address _account) public view returns (IERC721, uint256) {\n        Incentive storage targetIncentive = incentives[_lpToken];\n        uint256 userNotPaidRewardPerToken = _rewardPerToken(_lpToken) - targetIncentive.userRewardPerTokenPaid[_account][targetIncentive.epochNum];\n        uint256 userBalance = stakingCenter.balanceOf(IERC20(_lpToken), _account);\n        uint256 userUnClaimedRewards = targetIncentive.userUnClaimedRewards[_account][targetIncentive.epochNum];\n\n        uint256 rewardAmount = FixedPointMathLib.mulWadDown(userBalance, userNotPaidRewardPerToken) + userUnClaimedRewards;\n        rewardAmount = (targetIncentive.remainAmount * FixedPointMathLib.WAD < rewardAmount) ? targetIncentive.remainAmount * FixedPointMathLib.WAD : rewardAmount;\n\n        return (\n            targetIncentive.rewardToken,\n            rewardAmount\n        );\n    }\n\n    function estimatedOneYearRewards(address _lpToken) external view returns (IERC721, uint256) {\n        Incentive storage targetIncentive = incentives[_lpToken];\n        uint256 nowTime = block.timestamp;\n        return (\n            targetIncentive.rewardToken,\n            (targetIncentive.startTime < nowTime) ? targetIncentive.rewardRate * 31536000 : 0\n        );\n    }\n\n    function _lastTimeRewardApplicable(Incentive storage _incentive) internal view returns (uint256) {\n        uint256 nowTime = block.timestamp;\n        uint256 startTime = _incentive.startTime;\n        return (nowTime < startTime) ? startTime : nowTime;\n    }\n\n    function _rewardPerToken(address _lpToken) internal view returns (uint256 newRewardPerTokenStored) {\n        uint256 totalStakingAmount = stakingCenter.totalStakingAmount(IERC20(_lpToken));\n        Incentive storage targetIncentive = incentives[_lpToken];\n        if (totalStakingAmount == 0) {\n            newRewardPerTokenStored = targetIncentive.rewardPerTokenStored;\n        } else {\n            uint256 deltaTime = _lastTimeRewardApplicable(targetIncentive) - targetIncentive.lastRewardTime;\n            uint256 addend = FixedPointMathLib.divWadDown(deltaTime * targetIncentive.rewardRate, totalStakingAmount);\n            newRewardPerTokenStored = targetIncentive.rewardPerTokenStored + addend;\n        }\n    }\n\n    function _createIncentive(\n        address _lpToken,\n        IERC721 _rewardToken,\n        uint256 _startTime,\n        uint256 _rewardRate,\n        uint256 _rewardAmount\n    ) \n        internal\n    {\n        require(_startTime > block.timestamp, \"IntswapV1Launchpool: Expired\");\n        require(_rewardRate > 0, \"IntswapV1Launchpool: RewardRate not zero\");\n        require(_rewardAmount > 0, \"IntswapV1Launchpool: Not Zero\");\n        require(factory.isOfficialPair(address(_lpToken)), \"IntswapV1Launchpool: Not Official LP Token\");\n\n        Incentive storage newIncentive = incentives[_lpToken];\n        require(!newIncentive.isActive, \"IntswapV1Launchpool: Already Created\");\n\n        newIncentive.lpToken = _lpToken;\n        newIncentive.rewardToken = _rewardToken;\n        newIncentive.startTime = _startTime;\n        newIncentive.lastRewardTime = newIncentive.startTime;\n        newIncentive.rewardRate = _rewardRate;\n        newIncentive.totalRewardAmount = _rewardAmount;\n        newIncentive.remainAmount = _rewardAmount;\n        newIncentive.isActive = true;\n\n        emit NewRewardEpoch(\n            _lpToken, \n            _rewardToken, \n            0, \n            _startTime, \n            _rewardRate, \n            _rewardAmount\n        );\n    }\n\n    function _sendSpecificNFTsToRecipient(\n        IERC721 nft,\n        address nftSender,\n        address nftRecipient,\n        uint256[] memory nftIds,\n        uint256 length\n    ) internal {\n        for (uint256 i; i < length; ) {\n            nft.transferFrom(nftSender, nftRecipient, nftIds[i]);\n\n            unchecked {\n                ++i;\n            }\n        }\n    }\n}",
  "sourcePath": "/Users/qijunlin/IntswapWorkSpace/intswap-core-v1/contracts/launchpool/IntswapV1Launchpool.sol",
  "compiler": {
    "name": "solc",
    "version": "0.8.10+commit.fc410830.Emscripten.clang"
  },
  "schemaVersion": "3.4.4",
  "updatedAt": "2023-09-05T07:19:07.878Z",
  "networkType": "ethereum",
  "devdoc": {
    "kind": "dev",
    "methods": {
      "getRoleAdmin(bytes32)": {
        "details": "Returns the admin role that controls `role`. See {grantRole} and {revokeRole}. To change a role's admin, use {_setRoleAdmin}."
      },
      "grantRole(bytes32,address)": {
        "details": "Grants `role` to `account`. If `account` had not been already granted `role`, emits a {RoleGranted} event. Requirements: - the caller must have ``role``'s admin role. May emit a {RoleGranted} event."
      },
      "hasRole(bytes32,address)": {
        "details": "Returns `true` if `account` has been granted `role`."
      },
      "renounceRole(bytes32,address)": {
        "details": "Revokes `role` from the calling account. Roles are often managed via {grantRole} and {revokeRole}: this function's purpose is to provide a mechanism for accounts to lose their privileges if they are compromised (such as when a trusted device is misplaced). If the calling account had been revoked `role`, emits a {RoleRevoked} event. Requirements: - the caller must be `account`. May emit a {RoleRevoked} event."
      },
      "revokeRole(bytes32,address)": {
        "details": "Revokes `role` from `account`. If `account` had been granted `role`, emits a {RoleRevoked} event. Requirements: - the caller must have ``role``'s admin role. May emit a {RoleRevoked} event."
      },
      "supportsInterface(bytes4)": {
        "details": "See {IERC165-supportsInterface}."
      }
    },
    "version": 1
  },
  "userdoc": {
    "kind": "user",
    "methods": {},
    "version": 1
  }
}